{
  "_format": "hh-sol-artifact-1",
  "contractName": "WeSave",
  "sourceName": "contracts/WeSave.sol",
  "abi": [
    {
      "inputs": [],
      "stateMutability": "nonpayable",
      "type": "constructor"
    },
    {
      "inputs": [
        {
          "internalType": "address",
          "name": "sender",
          "type": "address"
        },
        {
          "internalType": "uint256",
          "name": "tokenId",
          "type": "uint256"
        },
        {
          "internalType": "address",
          "name": "owner",
          "type": "address"
        }
      ],
      "name": "ERC721IncorrectOwner",
      "type": "error"
    },
    {
      "inputs": [
        {
          "internalType": "address",
          "name": "operator",
          "type": "address"
        },
        {
          "internalType": "uint256",
          "name": "tokenId",
          "type": "uint256"
        }
      ],
      "name": "ERC721InsufficientApproval",
      "type": "error"
    },
    {
      "inputs": [
        {
          "internalType": "address",
          "name": "approver",
          "type": "address"
        }
      ],
      "name": "ERC721InvalidApprover",
      "type": "error"
    },
    {
      "inputs": [
        {
          "internalType": "address",
          "name": "operator",
          "type": "address"
        }
      ],
      "name": "ERC721InvalidOperator",
      "type": "error"
    },
    {
      "inputs": [
        {
          "internalType": "address",
          "name": "owner",
          "type": "address"
        }
      ],
      "name": "ERC721InvalidOwner",
      "type": "error"
    },
    {
      "inputs": [
        {
          "internalType": "address",
          "name": "receiver",
          "type": "address"
        }
      ],
      "name": "ERC721InvalidReceiver",
      "type": "error"
    },
    {
      "inputs": [
        {
          "internalType": "address",
          "name": "sender",
          "type": "address"
        }
      ],
      "name": "ERC721InvalidSender",
      "type": "error"
    },
    {
      "inputs": [
        {
          "internalType": "uint256",
          "name": "tokenId",
          "type": "uint256"
        }
      ],
      "name": "ERC721NonexistentToken",
      "type": "error"
    },
    {
      "inputs": [],
      "name": "EnforcedPause",
      "type": "error"
    },
    {
      "inputs": [],
      "name": "ExpectedPause",
      "type": "error"
    },
    {
      "inputs": [
        {
          "internalType": "address",
          "name": "owner",
          "type": "address"
        }
      ],
      "name": "OwnableInvalidOwner",
      "type": "error"
    },
    {
      "inputs": [
        {
          "internalType": "address",
          "name": "account",
          "type": "address"
        }
      ],
      "name": "OwnableUnauthorizedAccount",
      "type": "error"
    },
    {
      "inputs": [],
      "name": "ReentrancyGuardReentrantCall",
      "type": "error"
    },
    {
      "anonymous": false,
      "inputs": [
        {
          "indexed": true,
          "internalType": "address",
          "name": "owner",
          "type": "address"
        },
        {
          "indexed": true,
          "internalType": "address",
          "name": "approved",
          "type": "address"
        },
        {
          "indexed": true,
          "internalType": "uint256",
          "name": "tokenId",
          "type": "uint256"
        }
      ],
      "name": "Approval",
      "type": "event"
    },
    {
      "anonymous": false,
      "inputs": [
        {
          "indexed": true,
          "internalType": "address",
          "name": "owner",
          "type": "address"
        },
        {
          "indexed": true,
          "internalType": "address",
          "name": "operator",
          "type": "address"
        },
        {
          "indexed": false,
          "internalType": "bool",
          "name": "approved",
          "type": "bool"
        }
      ],
      "name": "ApprovalForAll",
      "type": "event"
    },
    {
      "anonymous": false,
      "inputs": [
        {
          "indexed": false,
          "internalType": "uint256",
          "name": "_fromTokenId",
          "type": "uint256"
        },
        {
          "indexed": false,
          "internalType": "uint256",
          "name": "_toTokenId",
          "type": "uint256"
        }
      ],
      "name": "BatchMetadataUpdate",
      "type": "event"
    },
    {
      "anonymous": false,
      "inputs": [
        {
          "indexed": true,
          "internalType": "uint256",
          "name": "goalId",
          "type": "uint256"
        },
        {
          "indexed": true,
          "internalType": "address",
          "name": "user",
          "type": "address"
        },
        {
          "indexed": false,
          "internalType": "uint256",
          "name": "amount",
          "type": "uint256"
        },
        {
          "indexed": false,
          "internalType": "uint256",
          "name": "newBalance",
          "type": "uint256"
        },
        {
          "indexed": false,
          "internalType": "uint256",
          "name": "timestamp",
          "type": "uint256"
        }
      ],
      "name": "DepositMade",
      "type": "event"
    },
    {
      "anonymous": false,
      "inputs": [
        {
          "indexed": true,
          "internalType": "uint256",
          "name": "goalId",
          "type": "uint256"
        },
        {
          "indexed": true,
          "internalType": "address",
          "name": "user",
          "type": "address"
        },
        {
          "indexed": false,
          "internalType": "uint256",
          "name": "totalAmount",
          "type": "uint256"
        },
        {
          "indexed": false,
          "internalType": "uint256",
          "name": "timestamp",
          "type": "uint256"
        }
      ],
      "name": "GoalCompleted",
      "type": "event"
    },
    {
      "anonymous": false,
      "inputs": [
        {
          "indexed": true,
          "internalType": "uint256",
          "name": "goalId",
          "type": "uint256"
        },
        {
          "indexed": true,
          "internalType": "address",
          "name": "user",
          "type": "address"
        },
        {
          "indexed": false,
          "internalType": "string",
          "name": "name",
          "type": "string"
        },
        {
          "indexed": false,
          "internalType": "string",
          "name": "description",
          "type": "string"
        },
        {
          "indexed": false,
          "internalType": "uint256",
          "name": "targetAmount",
          "type": "uint256"
        },
        {
          "indexed": false,
          "internalType": "uint256",
          "name": "deadline",
          "type": "uint256"
        },
        {
          "indexed": false,
          "internalType": "string",
          "name": "category",
          "type": "string"
        },
        {
          "indexed": false,
          "internalType": "uint256",
          "name": "timestamp",
          "type": "uint256"
        }
      ],
      "name": "GoalCreated",
      "type": "event"
    },
    {
      "anonymous": false,
      "inputs": [
        {
          "indexed": true,
          "internalType": "uint256",
          "name": "goalId",
          "type": "uint256"
        },
        {
          "indexed": true,
          "internalType": "address",
          "name": "user",
          "type": "address"
        },
        {
          "indexed": false,
          "internalType": "uint256",
          "name": "refundAmount",
          "type": "uint256"
        },
        {
          "indexed": false,
          "internalType": "uint256",
          "name": "timestamp",
          "type": "uint256"
        }
      ],
      "name": "GoalDeleted",
      "type": "event"
    },
    {
      "anonymous": false,
      "inputs": [
        {
          "indexed": false,
          "internalType": "uint256",
          "name": "_tokenId",
          "type": "uint256"
        }
      ],
      "name": "MetadataUpdate",
      "type": "event"
    },
    {
      "anonymous": false,
      "inputs": [
        {
          "indexed": true,
          "internalType": "uint256",
          "name": "goalId",
          "type": "uint256"
        },
        {
          "indexed": true,
          "internalType": "address",
          "name": "user",
          "type": "address"
        },
        {
          "indexed": false,
          "internalType": "uint256",
          "name": "milestoneAmount",
          "type": "uint256"
        },
        {
          "indexed": false,
          "internalType": "uint256",
          "name": "nftTokenId",
          "type": "uint256"
        },
        {
          "indexed": false,
          "internalType": "uint256",
          "name": "timestamp",
          "type": "uint256"
        }
      ],
      "name": "MilestoneReached",
      "type": "event"
    },
    {
      "anonymous": false,
      "inputs": [
        {
          "indexed": true,
          "internalType": "address",
          "name": "previousOwner",
          "type": "address"
        },
        {
          "indexed": true,
          "internalType": "address",
          "name": "newOwner",
          "type": "address"
        }
      ],
      "name": "OwnershipTransferred",
      "type": "event"
    },
    {
      "anonymous": false,
      "inputs": [
        {
          "indexed": false,
          "internalType": "address",
          "name": "account",
          "type": "address"
        }
      ],
      "name": "Paused",
      "type": "event"
    },
    {
      "anonymous": false,
      "inputs": [
        {
          "indexed": true,
          "internalType": "address",
          "name": "from",
          "type": "address"
        },
        {
          "indexed": true,
          "internalType": "address",
          "name": "to",
          "type": "address"
        },
        {
          "indexed": true,
          "internalType": "uint256",
          "name": "tokenId",
          "type": "uint256"
        }
      ],
      "name": "Transfer",
      "type": "event"
    },
    {
      "anonymous": false,
      "inputs": [
        {
          "indexed": false,
          "internalType": "address",
          "name": "account",
          "type": "address"
        }
      ],
      "name": "Unpaused",
      "type": "event"
    },
    {
      "anonymous": false,
      "inputs": [
        {
          "indexed": true,
          "internalType": "uint256",
          "name": "goalId",
          "type": "uint256"
        },
        {
          "indexed": true,
          "internalType": "address",
          "name": "user",
          "type": "address"
        },
        {
          "indexed": false,
          "internalType": "uint256",
          "name": "amount",
          "type": "uint256"
        },
        {
          "indexed": false,
          "internalType": "uint256",
          "name": "newBalance",
          "type": "uint256"
        },
        {
          "indexed": false,
          "internalType": "uint256",
          "name": "timestamp",
          "type": "uint256"
        }
      ],
      "name": "WithdrawalMade",
      "type": "event"
    },
    {
      "inputs": [],
      "name": "COMPLETION_REWARD_FEE",
      "outputs": [
        {
          "internalType": "uint256",
          "name": "",
          "type": "uint256"
        }
      ],
      "stateMutability": "view",
      "type": "function"
    },
    {
      "inputs": [],
      "name": "DEPOSIT_FEE",
      "outputs": [
        {
          "internalType": "uint256",
          "name": "",
          "type": "uint256"
        }
      ],
      "stateMutability": "view",
      "type": "function"
    },
    {
      "inputs": [],
      "name": "MAX_DEPOSIT_AMOUNT",
      "outputs": [
        {
          "internalType": "uint256",
          "name": "",
          "type": "uint256"
        }
      ],
      "stateMutability": "view",
      "type": "function"
    },
    {
      "inputs": [],
      "name": "MAX_GOALS_PER_USER",
      "outputs": [
        {
          "internalType": "uint256",
          "name": "",
          "type": "uint256"
        }
      ],
      "stateMutability": "view",
      "type": "function"
    },
    {
      "inputs": [],
      "name": "MAX_GOAL_AMOUNT",
      "outputs": [
        {
          "internalType": "uint256",
          "name": "",
          "type": "uint256"
        }
      ],
      "stateMutability": "view",
      "type": "function"
    },
    {
      "inputs": [],
      "name": "MILESTONE_PERCENTAGES",
      "outputs": [
        {
          "internalType": "uint256",
          "name": "",
          "type": "uint256"
        }
      ],
      "stateMutability": "view",
      "type": "function"
    },
    {
      "inputs": [],
      "name": "MIN_DEPOSIT_AMOUNT",
      "outputs": [
        {
          "internalType": "uint256",
          "name": "",
          "type": "uint256"
        }
      ],
      "stateMutability": "view",
      "type": "function"
    },
    {
      "inputs": [],
      "name": "MIN_GOAL_AMOUNT",
      "outputs": [
        {
          "internalType": "uint256",
          "name": "",
          "type": "uint256"
        }
      ],
      "stateMutability": "view",
      "type": "function"
    },
    {
      "inputs": [],
      "name": "WITHDRAWAL_FEE",
      "outputs": [
        {
          "internalType": "uint256",
          "name": "",
          "type": "uint256"
        }
      ],
      "stateMutability": "view",
      "type": "function"
    },
    {
      "inputs": [
        {
          "internalType": "address",
          "name": "to",
          "type": "address"
        },
        {
          "internalType": "uint256",
          "name": "tokenId",
          "type": "uint256"
        }
      ],
      "name": "approve",
      "outputs": [],
      "stateMutability": "nonpayable",
      "type": "function"
    },
    {
      "inputs": [
        {
          "internalType": "address",
          "name": "owner",
          "type": "address"
        }
      ],
      "name": "balanceOf",
      "outputs": [
        {
          "internalType": "uint256",
          "name": "",
          "type": "uint256"
        }
      ],
      "stateMutability": "view",
      "type": "function"
    },
    {
      "inputs": [
        {
          "internalType": "uint256",
          "name": "tokenId",
          "type": "uint256"
        }
      ],
      "name": "burn",
      "outputs": [],
      "stateMutability": "nonpayable",
      "type": "function"
    },
    {
      "inputs": [
        {
          "internalType": "uint256",
          "name": "goalId",
          "type": "uint256"
        }
      ],
      "name": "checkExpiredGoal",
      "outputs": [],
      "stateMutability": "nonpayable",
      "type": "function"
    },
    {
      "inputs": [
        {
          "internalType": "uint256",
          "name": "goalId",
          "type": "uint256"
        }
      ],
      "name": "completeGoal",
      "outputs": [],
      "stateMutability": "nonpayable",
      "type": "function"
    },
    {
      "inputs": [
        {
          "internalType": "address",
          "name": "",
          "type": "address"
        }
      ],
      "name": "completedGoalsCount",
      "outputs": [
        {
          "internalType": "uint256",
          "name": "",
          "type": "uint256"
        }
      ],
      "stateMutability": "view",
      "type": "function"
    },
    {
      "inputs": [
        {
          "internalType": "string",
          "name": "name",
          "type": "string"
        },
        {
          "internalType": "string",
          "name": "description",
          "type": "string"
        },
        {
          "internalType": "uint256",
          "name": "targetAmount",
          "type": "uint256"
        },
        {
          "internalType": "uint256",
          "name": "deadline",
          "type": "uint256"
        },
        {
          "internalType": "string",
          "name": "category",
          "type": "string"
        }
      ],
      "name": "createGoal",
      "outputs": [],
      "stateMutability": "nonpayable",
      "type": "function"
    },
    {
      "inputs": [
        {
          "internalType": "uint256",
          "name": "goalId",
          "type": "uint256"
        }
      ],
      "name": "deleteGoal",
      "outputs": [],
      "stateMutability": "nonpayable",
      "type": "function"
    },
    {
      "inputs": [
        {
          "internalType": "uint256",
          "name": "goalId",
          "type": "uint256"
        },
        {
          "internalType": "string",
          "name": "description",
          "type": "string"
        }
      ],
      "name": "deposit",
      "outputs": [],
      "stateMutability": "payable",
      "type": "function"
    },
    {
      "inputs": [],
      "name": "emergencyWithdraw",
      "outputs": [],
      "stateMutability": "nonpayable",
      "type": "function"
    },
    {
      "inputs": [
        {
          "internalType": "uint256",
          "name": "tokenId",
          "type": "uint256"
        }
      ],
      "name": "getApproved",
      "outputs": [
        {
          "internalType": "address",
          "name": "",
          "type": "address"
        }
      ],
      "stateMutability": "view",
      "type": "function"
    },
    {
      "inputs": [],
      "name": "getContractStats",
      "outputs": [
        {
          "internalType": "uint256",
          "name": "totalGoals",
          "type": "uint256"
        },
        {
          "internalType": "uint256",
          "name": "totalUsers",
          "type": "uint256"
        },
        {
          "internalType": "uint256",
          "name": "totalVolume",
          "type": "uint256"
        },
        {
          "internalType": "uint256",
          "name": "totalNFTsMinted",
          "type": "uint256"
        }
      ],
      "stateMutability": "view",
      "type": "function"
    },
    {
      "inputs": [
        {
          "internalType": "uint256",
          "name": "goalId",
          "type": "uint256"
        }
      ],
      "name": "getGoal",
      "outputs": [
        {
          "components": [
            {
              "internalType": "uint256",
              "name": "id",
              "type": "uint256"
            },
            {
              "internalType": "address",
              "name": "owner",
              "type": "address"
            },
            {
              "internalType": "string",
              "name": "name",
              "type": "string"
            },
            {
              "internalType": "string",
              "name": "description",
              "type": "string"
            },
            {
              "internalType": "uint256",
              "name": "targetAmount",
              "type": "uint256"
            },
            {
              "internalType": "uint256",
              "name": "currentAmount",
              "type": "uint256"
            },
            {
              "internalType": "uint256",
              "name": "deadline",
              "type": "uint256"
            },
            {
              "internalType": "string",
              "name": "category",
              "type": "string"
            },
            {
              "internalType": "enum WeSave.GoalStatus",
              "name": "status",
              "type": "uint8"
            },
            {
              "internalType": "uint256",
              "name": "createdAt",
              "type": "uint256"
            },
            {
              "internalType": "uint256",
              "name": "completedAt",
              "type": "uint256"
            },
            {
              "internalType": "bool",
              "name": "exists",
              "type": "bool"
            }
          ],
          "internalType": "struct WeSave.Goal",
          "name": "",
          "type": "tuple"
        }
      ],
      "stateMutability": "view",
      "type": "function"
    },
    {
      "inputs": [
        {
          "internalType": "uint256",
          "name": "goalId",
          "type": "uint256"
        }
      ],
      "name": "getGoalMilestones",
      "outputs": [
        {
          "components": [
            {
              "internalType": "uint256",
              "name": "goalId",
              "type": "uint256"
            },
            {
              "internalType": "uint256",
              "name": "amount",
              "type": "uint256"
            },
            {
              "internalType": "bool",
              "name": "reached",
              "type": "bool"
            },
            {
              "internalType": "uint256",
              "name": "reachedAt",
              "type": "uint256"
            },
            {
              "internalType": "uint256",
              "name": "nftTokenId",
              "type": "uint256"
            }
          ],
          "internalType": "struct WeSave.Milestone[]",
          "name": "",
          "type": "tuple[]"
        }
      ],
      "stateMutability": "view",
      "type": "function"
    },
    {
      "inputs": [
        {
          "internalType": "uint256",
          "name": "goalId",
          "type": "uint256"
        }
      ],
      "name": "getGoalTransactions",
      "outputs": [
        {
          "internalType": "uint256[]",
          "name": "",
          "type": "uint256[]"
        }
      ],
      "stateMutability": "view",
      "type": "function"
    },
    {
      "inputs": [
        {
          "internalType": "uint256",
          "name": "transactionId",
          "type": "uint256"
        }
      ],
      "name": "getTransaction",
      "outputs": [
        {
          "components": [
            {
              "internalType": "uint256",
              "name": "id",
              "type": "uint256"
            },
            {
              "internalType": "uint256",
              "name": "goalId",
              "type": "uint256"
            },
            {
              "internalType": "address",
              "name": "user",
              "type": "address"
            },
            {
              "internalType": "uint256",
              "name": "amount",
              "type": "uint256"
            },
            {
              "internalType": "enum WeSave.TransactionType",
              "name": "transactionType",
              "type": "uint8"
            },
            {
              "internalType": "string",
              "name": "description",
              "type": "string"
            },
            {
              "internalType": "uint256",
              "name": "timestamp",
              "type": "uint256"
            }
          ],
          "internalType": "struct WeSave.Transaction",
          "name": "",
          "type": "tuple"
        }
      ],
      "stateMutability": "view",
      "type": "function"
    },
    {
      "inputs": [
        {
          "internalType": "address",
          "name": "user",
          "type": "address"
        }
      ],
      "name": "getUserGoals",
      "outputs": [
        {
          "internalType": "uint256[]",
          "name": "",
          "type": "uint256[]"
        }
      ],
      "stateMutability": "view",
      "type": "function"
    },
    {
      "inputs": [
        {
          "internalType": "address",
          "name": "user",
          "type": "address"
        }
      ],
      "name": "getUserStats",
      "outputs": [
        {
          "internalType": "uint256",
          "name": "totalGoals",
          "type": "uint256"
        },
        {
          "internalType": "uint256",
          "name": "completedGoals",
          "type": "uint256"
        },
        {
          "internalType": "uint256",
          "name": "totalDeposits",
          "type": "uint256"
        },
        {
          "internalType": "uint256",
          "name": "totalWithdrawals",
          "type": "uint256"
        },
        {
          "internalType": "uint256",
          "name": "activeGoals",
          "type": "uint256"
        }
      ],
      "stateMutability": "view",
      "type": "function"
    },
    {
      "inputs": [
        {
          "internalType": "uint256",
          "name": "",
          "type": "uint256"
        },
        {
          "internalType": "uint256",
          "name": "",
          "type": "uint256"
        }
      ],
      "name": "goalMilestones",
      "outputs": [
        {
          "internalType": "uint256",
          "name": "goalId",
          "type": "uint256"
        },
        {
          "internalType": "uint256",
          "name": "amount",
          "type": "uint256"
        },
        {
          "internalType": "bool",
          "name": "reached",
          "type": "bool"
        },
        {
          "internalType": "uint256",
          "name": "reachedAt",
          "type": "uint256"
        },
        {
          "internalType": "uint256",
          "name": "nftTokenId",
          "type": "uint256"
        }
      ],
      "stateMutability": "view",
      "type": "function"
    },
    {
      "inputs": [
        {
          "internalType": "uint256",
          "name": "",
          "type": "uint256"
        },
        {
          "internalType": "uint256",
          "name": "",
          "type": "uint256"
        }
      ],
      "name": "goalTransactions",
      "outputs": [
        {
          "internalType": "uint256",
          "name": "",
          "type": "uint256"
        }
      ],
      "stateMutability": "view",
      "type": "function"
    },
    {
      "inputs": [
        {
          "internalType": "uint256",
          "name": "",
          "type": "uint256"
        }
      ],
      "name": "goals",
      "outputs": [
        {
          "internalType": "uint256",
          "name": "id",
          "type": "uint256"
        },
        {
          "internalType": "address",
          "name": "owner",
          "type": "address"
        },
        {
          "internalType": "string",
          "name": "name",
          "type": "string"
        },
        {
          "internalType": "string",
          "name": "description",
          "type": "string"
        },
        {
          "internalType": "uint256",
          "name": "targetAmount",
          "type": "uint256"
        },
        {
          "internalType": "uint256",
          "name": "currentAmount",
          "type": "uint256"
        },
        {
          "internalType": "uint256",
          "name": "deadline",
          "type": "uint256"
        },
        {
          "internalType": "string",
          "name": "category",
          "type": "string"
        },
        {
          "internalType": "enum WeSave.GoalStatus",
          "name": "status",
          "type": "uint8"
        },
        {
          "internalType": "uint256",
          "name": "createdAt",
          "type": "uint256"
        },
        {
          "internalType": "uint256",
          "name": "completedAt",
          "type": "uint256"
        },
        {
          "internalType": "bool",
          "name": "exists",
          "type": "bool"
        }
      ],
      "stateMutability": "view",
      "type": "function"
    },
    {
      "inputs": [
        {
          "internalType": "address",
          "name": "owner",
          "type": "address"
        },
        {
          "internalType": "address",
          "name": "operator",
          "type": "address"
        }
      ],
      "name": "isApprovedForAll",
      "outputs": [
        {
          "internalType": "bool",
          "name": "",
          "type": "bool"
        }
      ],
      "stateMutability": "view",
      "type": "function"
    },
    {
      "inputs": [],
      "name": "name",
      "outputs": [
        {
          "internalType": "string",
          "name": "",
          "type": "string"
        }
      ],
      "stateMutability": "view",
      "type": "function"
    },
    {
      "inputs": [],
      "name": "owner",
      "outputs": [
        {
          "internalType": "address",
          "name": "",
          "type": "address"
        }
      ],
      "stateMutability": "view",
      "type": "function"
    },
    {
      "inputs": [
        {
          "internalType": "uint256",
          "name": "tokenId",
          "type": "uint256"
        }
      ],
      "name": "ownerOf",
      "outputs": [
        {
          "internalType": "address",
          "name": "",
          "type": "address"
        }
      ],
      "stateMutability": "view",
      "type": "function"
    },
    {
      "inputs": [],
      "name": "pause",
      "outputs": [],
      "stateMutability": "nonpayable",
      "type": "function"
    },
    {
      "inputs": [],
      "name": "paused",
      "outputs": [
        {
          "internalType": "bool",
          "name": "",
          "type": "bool"
        }
      ],
      "stateMutability": "view",
      "type": "function"
    },
    {
      "inputs": [],
      "name": "renounceOwnership",
      "outputs": [],
      "stateMutability": "nonpayable",
      "type": "function"
    },
    {
      "inputs": [
        {
          "internalType": "address",
          "name": "from",
          "type": "address"
        },
        {
          "internalType": "address",
          "name": "to",
          "type": "address"
        },
        {
          "internalType": "uint256",
          "name": "tokenId",
          "type": "uint256"
        }
      ],
      "name": "safeTransferFrom",
      "outputs": [],
      "stateMutability": "nonpayable",
      "type": "function"
    },
    {
      "inputs": [
        {
          "internalType": "address",
          "name": "from",
          "type": "address"
        },
        {
          "internalType": "address",
          "name": "to",
          "type": "address"
        },
        {
          "internalType": "uint256",
          "name": "tokenId",
          "type": "uint256"
        },
        {
          "internalType": "bytes",
          "name": "data",
          "type": "bytes"
        }
      ],
      "name": "safeTransferFrom",
      "outputs": [],
      "stateMutability": "nonpayable",
      "type": "function"
    },
    {
      "inputs": [
        {
          "internalType": "address",
          "name": "operator",
          "type": "address"
        },
        {
          "internalType": "bool",
          "name": "approved",
          "type": "bool"
        }
      ],
      "name": "setApprovalForAll",
      "outputs": [],
      "stateMutability": "nonpayable",
      "type": "function"
    },
    {
      "inputs": [
        {
          "internalType": "bytes4",
          "name": "interfaceId",
          "type": "bytes4"
        }
      ],
      "name": "supportsInterface",
      "outputs": [
        {
          "internalType": "bool",
          "name": "",
          "type": "bool"
        }
      ],
      "stateMutability": "view",
      "type": "function"
    },
    {
      "inputs": [],
      "name": "symbol",
      "outputs": [
        {
          "internalType": "string",
          "name": "",
          "type": "string"
        }
      ],
      "stateMutability": "view",
      "type": "function"
    },
    {
      "inputs": [
        {
          "internalType": "uint256",
          "name": "tokenId",
          "type": "uint256"
        }
      ],
      "name": "tokenURI",
      "outputs": [
        {
          "internalType": "string",
          "name": "",
          "type": "string"
        }
      ],
      "stateMutability": "view",
      "type": "function"
    },
    {
      "inputs": [
        {
          "internalType": "address",
          "name": "",
          "type": "address"
        }
      ],
      "name": "totalDeposited",
      "outputs": [
        {
          "internalType": "uint256",
          "name": "",
          "type": "uint256"
        }
      ],
      "stateMutability": "view",
      "type": "function"
    },
    {
      "inputs": [
        {
          "internalType": "address",
          "name": "",
          "type": "address"
        }
      ],
      "name": "totalWithdrawn",
      "outputs": [
        {
          "internalType": "uint256",
          "name": "",
          "type": "uint256"
        }
      ],
      "stateMutability": "view",
      "type": "function"
    },
    {
      "inputs": [
        {
          "internalType": "uint256",
          "name": "",
          "type": "uint256"
        }
      ],
      "name": "transactions",
      "outputs": [
        {
          "internalType": "uint256",
          "name": "id",
          "type": "uint256"
        },
        {
          "internalType": "uint256",
          "name": "goalId",
          "type": "uint256"
        },
        {
          "internalType": "address",
          "name": "user",
          "type": "address"
        },
        {
          "internalType": "uint256",
          "name": "amount",
          "type": "uint256"
        },
        {
          "internalType": "enum WeSave.TransactionType",
          "name": "transactionType",
          "type": "uint8"
        },
        {
          "internalType": "string",
          "name": "description",
          "type": "string"
        },
        {
          "internalType": "uint256",
          "name": "timestamp",
          "type": "uint256"
        }
      ],
      "stateMutability": "view",
      "type": "function"
    },
    {
      "inputs": [
        {
          "internalType": "address",
          "name": "from",
          "type": "address"
        },
        {
          "internalType": "address",
          "name": "to",
          "type": "address"
        },
        {
          "internalType": "uint256",
          "name": "tokenId",
          "type": "uint256"
        }
      ],
      "name": "transferFrom",
      "outputs": [],
      "stateMutability": "nonpayable",
      "type": "function"
    },
    {
      "inputs": [
        {
          "internalType": "address",
          "name": "newOwner",
          "type": "address"
        }
      ],
      "name": "transferOwnership",
      "outputs": [],
      "stateMutability": "nonpayable",
      "type": "function"
    },
    {
      "inputs": [],
      "name": "unpause",
      "outputs": [],
      "stateMutability": "nonpayable",
      "type": "function"
    },
    {
      "inputs": [
        {
          "internalType": "address",
          "name": "",
          "type": "address"
        },
        {
          "internalType": "uint256",
          "name": "",
          "type": "uint256"
        }
      ],
      "name": "userGoals",
      "outputs": [
        {
          "internalType": "uint256",
          "name": "",
          "type": "uint256"
        }
      ],
      "stateMutability": "view",
      "type": "function"
    },
    {
      "inputs": [
        {
          "internalType": "uint256",
          "name": "goalId",
          "type": "uint256"
        },
        {
          "internalType": "uint256",
          "name": "amount",
          "type": "uint256"
        },
        {
          "internalType": "string",
          "name": "description",
          "type": "string"
        }
      ],
      "name": "withdraw",
      "outputs": [],
      "stateMutability": "nonpayable",
      "type": "function"
    },
    {
      "stateMutability": "payable",
      "type": "receive"
    }
  ],
  "bytecode": "0x60806040523480156200001157600080fd5b50336040518060400160405280601081526020016f576553617665204d696c6573746f6e6560801b8152506040518060400160405280600381526020016257534d60e81b8152508160009081620000699190620001b8565b506001620000788282620001b8565b5050506001600160a01b038116620000aa57604051631e4fbdf760e01b81526000600482015260240160405180910390fd5b620000b581620000c1565b50600160085562000284565b600780546001600160a01b038381166001600160a01b0319831681179093556040519116919082907f8be0079c531659141344cd1fd0a4f28419497f9722a3daafe3b4186f6b6457e090600090a35050565b634e487b7160e01b600052604160045260246000fd5b600181811c908216806200013e57607f821691505b6020821081036200015f57634e487b7160e01b600052602260045260246000fd5b50919050565b601f821115620001b357600081815260208120601f850160051c810160208610156200018e5750805b601f850160051c820191505b81811015620001af578281556001016200019a565b5050505b505050565b81516001600160401b03811115620001d457620001d462000113565b620001ec81620001e5845462000129565b8462000165565b602080601f8311600181146200022457600084156200020b5750858301515b600019600386901b1c1916600185901b178555620001af565b600085815260208120601f198616915b82811015620002555788860151825594840194600190910190840162000234565b5085821015620002745787850151600019600388901b60f8161c191681555b5050505050600190811b01905550565b61455b80620002946000396000f3fe6080604052600436106102e85760003560e01c8063715018a611610190578063d0ad447f116100dc578063dfe6b5d611610095578063efa1463a1161006f578063efa1463a1461095f578063f1215d251461097f578063f2fde38b14610992578063f6cf68f2146109b257600080fd5b8063dfe6b5d6146108df578063e8aba5f814610912578063e985e9c51461093f57600080fd5b8063d0ad447f146107f7578063d225240f14610824578063db2e21bc14610839578063de363e651461084e578063df37ae6d14610863578063df6ed6cb146108b257600080fd5b8063a22cb46511610149578063b6b3eedf11610123578063b6b3eedf14610797578063b88d4fde146107b7578063c87b56dd146107d7578063c8d6f3c71461044057600080fd5b8063a22cb4651461074d578063a5d33ed51461076d578063ada28c161461078257600080fd5b8063715018a61461069d5780638456cb59146106b25780638da5cb5b146106c75780638e03adf3146106e557806395d89b41146107055780639ace38c21461071a57600080fd5b8063369c681b1161024f5780634e43603a1161020857806361449ca2116101e257806361449ca2146106085780636352211e146106405780636b19c3e61461066057806370a082311461067d57600080fd5b80634e43603a1461057b57806353055481146105c35780635c975abb146105f057600080fd5b8063369c681b146104d55780633919418e146104f55780633f4ba83a1461050a57806342842e0e1461051f57806342966c681461053f5780634c34a9821461055f57600080fd5b806314178f3d116102a157806314178f3d146104005780631b461364146104205780631ea30fef1461044057806323b872dd1461045b57806333ea3dc81461047b57806335742c63146104a857600080fd5b806301ffc9a7146102f4578063026430491461032957806306fdde031461034b578063081812fc1461036d578063095ea7b3146103a55780630a64143a146103c557600080fd5b366102ef57005b600080fd5b34801561030057600080fd5b5061031461030f366004613975565b6109d2565b60405190151581526020015b60405180910390f35b34801561033557600080fd5b50610349610344366004613992565b6109e3565b005b34801561035757600080fd5b50610360610bec565b60405161032091906139fb565b34801561037957600080fd5b5061038d610388366004613992565b610c7e565b6040516001600160a01b039091168152602001610320565b3480156103b157600080fd5b506103496103c0366004613a2a565b610ca7565b3480156103d157600080fd5b506103f26103e0366004613a54565b60136020526000908152604090205481565b604051908152602001610320565b34801561040c57600080fd5b5061034961041b366004613992565b610cb6565b34801561042c57600080fd5b506103f261043b366004613a6f565b610e0b565b34801561044c57600080fd5b506103f266038d7ea4c6800081565b34801561046757600080fd5b50610349610476366004613a91565b610e3c565b34801561048757600080fd5b5061049b610496366004613992565b610ec7565b6040516103209190613af7565b3480156104b457600080fd5b506104c86104c3366004613a54565b61104d565b6040516103209190613b6d565b3480156104e157600080fd5b506103496104f0366004613c5d565b6110b9565b34801561050157600080fd5b506103f2606481565b34801561051657600080fd5b5061034961153f565b34801561052b57600080fd5b5061034961053a366004613a91565b611551565b34801561054b57600080fd5b5061034961055a366004613992565b61156c565b34801561056b57600080fd5b506103f2678ac7230489e8000081565b34801561058757600080fd5b5061059b610596366004613a54565b611578565b604080519586526020860194909452928401919091526060830152608082015260a001610320565b3480156105cf57600080fd5b506103f26105de366004613a54565b60126020526000908152604090205481565b3480156105fc57600080fd5b5060095460ff16610314565b34801561061457600080fd5b50610628610623366004613992565b611665565b6040516103209c9b9a99989796959493929190613cbd565b34801561064c57600080fd5b5061038d61065b366004613992565b611867565b34801561066c57600080fd5b506103f268056bc75e2d6310000081565b34801561068957600080fd5b506103f2610698366004613a54565b611872565b3480156106a957600080fd5b506103496118ba565b3480156106be57600080fd5b506103496118cc565b3480156106d357600080fd5b506007546001600160a01b031661038d565b3480156106f157600080fd5b50610349610700366004613992565b6118dc565b34801561071157600080fd5b50610360611b1c565b34801561072657600080fd5b5061073a610735366004613992565b611b2b565b6040516103209796959493929190613d5b565b34801561075957600080fd5b50610349610768366004613db2565b611c00565b34801561077957600080fd5b506103f2603281565b34801561078e57600080fd5b506103f2601981565b3480156107a357600080fd5b506103f26107b2366004613a2a565b611c0b565b3480156107c357600080fd5b506103496107d2366004613dee565b611c27565b3480156107e357600080fd5b506103606107f2366004613992565b611c3f565b34801561080357600080fd5b50610817610812366004613992565b611c4a565b6040516103209190613e6a565b34801561083057600080fd5b506103f2601481565b34801561084557600080fd5b50610349611ced565b34801561085a57600080fd5b506103f2600081565b34801561086f57600080fd5b5061088361087e366004613a6f565b611d74565b604051610320959493929190948552602085019390935290151560408401526060830152608082015260a00190565b3480156108be57600080fd5b506108d26108cd366004613992565b611dc5565b6040516103209190613eda565b3480156108eb57600080fd5b50600a54600c54604080519283526000602084015247908301526060820152608001610320565b34801561091e57600080fd5b506103f261092d366004613a54565b60146020526000908152604090205481565b34801561094b57600080fd5b5061031461095a366004613fbe565b612069565b34801561096b57600080fd5b506104c861097a366004613992565b612097565b61034961098d366004613ff1565b6120f7565b34801561099e57600080fd5b506103496109ad366004613a54565b612500565b3480156109be57600080fd5b506103496109cd366004614038565b61253e565b60006109dd82612905565b92915050565b6000818152600d60205260409020600b0154819060ff16610a1f5760405162461bcd60e51b8152600401610a16906140d4565b60405180910390fd5b6000828152600d602052604090206001015482906001600160a01b03163314610a5a5760405162461bcd60e51b8152600401610a1690614101565b6000818152600d60205260409020600b015460ff16610a8b5760405162461bcd60e51b8152600401610a16906140d4565b610a9361292a565b610a9b61294e565b6000838152600d602052604081206008015460ff166003811115610ac157610ac1613acd565b1480610af2575060026000848152600d602052604090206008015460ff166003811115610af057610af0613acd565b145b610b3e5760405162461bcd60e51b815260206004820152601760248201527f43616e6e6f742064656c657465207468697320676f616c0000000000000000006044820152606401610a16565b6000838152600d6020526040902060058101546008909101805460ff19166002179055610b6b3385612978565b8015610ba057604051339082156108fc029083906000818181858888f19350505050158015610b9e573d6000803e3d6000fd5b505b60408051828152426020820152339186917f2d7d05e8f816b08f81ef687f0f4106eb343dfa44636cbbe48edc54f16223efb6910160405180910390a350610be76001600855565b505050565b606060008054610bfb90614129565b80601f0160208091040260200160405190810160405280929190818152602001828054610c2790614129565b8015610c745780601f10610c4957610100808354040283529160200191610c74565b820191906000526020600020905b815481529060010190602001808311610c5757829003601f168201915b5050505050905090565b6000610c8982612a46565b506000828152600460205260409020546001600160a01b03166109dd565b610cb2828233612a7f565b5050565b6000818152600d60205260409020600b0154819060ff16610ce95760405162461bcd60e51b8152600401610a16906140d4565b6000828152600d602052604090206001015482906001600160a01b03163314610d245760405162461bcd60e51b8152600401610a1690614101565b6000818152600d60205260409020600b015460ff16610d555760405162461bcd60e51b8152600401610a16906140d4565b6000838152600d602052604081206008015460ff166003811115610d7b57610d7b613acd565b14610d985760405162461bcd60e51b8152600401610a1690614163565b6000838152600d60205260409020600601544211610deb5760405162461bcd60e51b815260206004820152601060248201526f11dbd85b081b9bdd08195e1c1a5c995960821b6044820152606401610a16565b50506000908152600d60205260409020600801805460ff19166003179055565b60116020528160005260406000208181548110610e2757600080fd5b90600052602060002001600091509150505481565b6001600160a01b038216610e6657604051633250574960e11b815260006004820152602401610a16565b6000610e73838333612a8c565b9050836001600160a01b0316816001600160a01b031614610ec1576040516364283d7b60e01b81526001600160a01b0380861660048301526024820184905282166044820152606401610a16565b50505050565b610ecf61388b565b6000828152600e60205260408120549003610f2c5760405162461bcd60e51b815260206004820152601a60248201527f5472616e73616374696f6e20646f6573206e6f742065786973740000000000006044820152606401610a16565b6000828152600e6020908152604091829020825160e081018452815481526001808301549382019390935260028201546001600160a01b0316938101939093526003810154606084015260048101549091608084019160ff1690811115610f9557610f95613acd565b6001811115610fa657610fa6613acd565b8152602001600582018054610fba90614129565b80601f0160208091040260200160405190810160405280929190818152602001828054610fe690614129565b80156110335780601f1061100857610100808354040283529160200191611033565b820191906000526020600020905b81548152906001019060200180831161101657829003601f168201915b505050505081526020016006820154815250509050919050565b6001600160a01b0381166000908152601060209081526040918290208054835181840281018401909452808452606093928301828280156110ad57602002820191906000526020600020905b815481526020019060010190808311611099575b50505050509050919050565b6000838152600d60205260409020600b0154839060ff166110ec5760405162461bcd60e51b8152600401610a16906140d4565b6000848152600d602052604090206001015484906001600160a01b031633146111275760405162461bcd60e51b8152600401610a1690614101565b6000818152600d60205260409020600b015460ff166111585760405162461bcd60e51b8152600401610a16906140d4565b84600080828152600d602052604090206008015460ff16600381111561118057611180613acd565b14806111b1575060026000828152600d602052604090206008015460ff1660038111156111af576111af613acd565b145b6111fd5760405162461bcd60e51b815260206004820152601e60248201527f43616e6e6f742077697468647261772066726f6d207468697320676f616c00006044820152606401610a16565b846000811161124e5760405162461bcd60e51b815260206004820152601d60248201527f416d6f756e74206d7573742062652067726561746572207468616e20300000006044820152606401610a16565b61125661292a565b61125e61294e565b6000878152600d60205260409020600501548611156112b65760405162461bcd60e51b8152602060048201526014602482015273496e73756666696369656e742062616c616e636560601b6044820152606401610a16565b60c8855111156112d85760405162461bcd60e51b8152600401610a169061418c565b60006127106112e86032896141d0565b6112f291906141e7565b905060006113008289614209565b905087600d60008b815260200190815260200160002060050160008282546113289190614209565b909155505033600090815260136020526040812080548a929061134c90849061421c565b925050819055506001600b6000828254611366919061421c565b9091555050600b546040805160e081018252828152602081018c90523391810191909152606081018a9052608081016001815260208082018b9052426040928301526000848152600e82528290208351815590830151600180830191909155918301516002820180546001600160a01b0319166001600160a01b0390921691909117905560608301516003820155608083015160048201805492939192909160ff1990911690838181111561141d5761141d613acd565b021790555060a082015160058201906114369082614275565b5060c0919091015160069091015560008a8152601160209081526040808320805460018101825590845291832090910183905551339184156108fc02918591818181858888f19350505050158015611492573d6000803e3d6000fd5b5082156114d5576007546040516001600160a01b039091169084156108fc029085906000818181858888f193505050501580156114d3573d6000803e3d6000fd5b505b60008a8152600d60209081526040918290206005015482518c8152918201524281830152905133918c917f02ccbee49d957c567108ee25674b40d88a899adec9318a6bfb4092559ba55bd69181900360600190a35050506115366001600855565b50505050505050565b611547612b85565b61154f612bb2565b565b610be783838360405180602001604052806000815250611c27565b610cb260008233612a8c565b6001600160a01b038116600090815260106020908152604080832054601483528184205460128452828520546013909452918420549093919291805b6001600160a01b03871660009081526010602052604090205481101561165b576001600160a01b03871660009081526010602052604081208054600d9183918590811061160357611603614335565b6000918252602080832090910154835282019290925260400190206008015460ff16600381111561163657611636613acd565b0361164957816116458161434b565b9250505b806116538161434b565b9150506115b4565b5091939590929450565b600d6020526000908152604090208054600182015460028301805492936001600160a01b039092169261169790614129565b80601f01602080910402602001604051908101604052809291908181526020018280546116c390614129565b80156117105780601f106116e557610100808354040283529160200191611710565b820191906000526020600020905b8154815290600101906020018083116116f357829003601f168201915b50505050509080600301805461172590614129565b80601f016020809104026020016040519081016040528092919081815260200182805461175190614129565b801561179e5780601f106117735761010080835404028352916020019161179e565b820191906000526020600020905b81548152906001019060200180831161178157829003601f168201915b5050505050908060040154908060050154908060060154908060070180546117c590614129565b80601f01602080910402602001604051908101604052809291908181526020018280546117f190614129565b801561183e5780601f106118135761010080835404028352916020019161183e565b820191906000526020600020905b81548152906001019060200180831161182157829003601f168201915b50505060088401546009850154600a860154600b90960154949560ff928316959194509250168c565b60006109dd82612a46565b60006001600160a01b03821661189e576040516322718ad960e21b815260006004820152602401610a16565b506001600160a01b031660009081526003602052604090205490565b6118c2612b85565b61154f6000612c04565b6118d4612b85565b61154f612c56565b6000818152600d60205260409020600b0154819060ff1661190f5760405162461bcd60e51b8152600401610a16906140d4565b6000828152600d602052604090206001015482906001600160a01b0316331461194a5760405162461bcd60e51b8152600401610a1690614101565b6000818152600d60205260409020600b015460ff1661197b5760405162461bcd60e51b8152600401610a16906140d4565b61198361292a565b6000838152600d602052604081206008015460ff1660038111156119a9576119a9613acd565b146119c65760405162461bcd60e51b8152600401610a1690614163565b6000838152600d6020526040902060048101546005909101541015611a205760405162461bcd60e51b815260206004820152601060248201526f11dbd85b081b9bdd081c995858da195960821b6044820152606401610a16565b6000838152600d6020908152604080832060088101805460ff1916600117905542600a9091015533835260149091528120805491611a5d8361434b565b91905055506001600c6000828254611a75919061421c565b9091555050600c54611a873382612c93565b6000611a9285612cad565b604051602001611aa29190614364565b6040516020818303038152906040529050611abd8282612d40565b6000858152600d602052604090819020600501549051339187917f219f5b135fff700bf27e2b29370d0b7783d0d0f416d42a1142ae2a42f099e87c91611b0d914290918252602082015260400190565b60405180910390a35050505050565b606060018054610bfb90614129565b600e60205260009081526040902080546001820154600283015460038401546004850154600586018054959694956001600160a01b0390941694929360ff9092169291611b7790614129565b80601f0160208091040260200160405190810160405280929190818152602001828054611ba390614129565b8015611bf05780601f10611bc557610100808354040283529160200191611bf0565b820191906000526020600020905b815481529060010190602001808311611bd357829003601f168201915b5050505050908060060154905087565b610cb2338383612d90565b60106020528160005260406000208181548110610e2757600080fd5b611c32848484610e3c565b610ec13385858585612e30565b60606109dd82612f5a565b6060600f6000838152602001908152602001600020805480602002602001604051908101604052809291908181526020016000905b82821015611ce25760008481526020908190206040805160a081018252600586029092018054835260018082015484860152600282015460ff16151592840192909252600381015460608401526004015460808301529083529092019101611c7f565b505050509050919050565b611cf5612b85565b4780611d3a5760405162461bcd60e51b81526020600482015260146024820152734e6f2066756e647320746f20776974686472617760601b6044820152606401610a16565b6007546040516001600160a01b039091169082156108fc029083906000818181858888f19350505050158015610cb2573d6000803e3d6000fd5b600f6020528160005260406000208181548110611d9057600080fd5b60009182526020909120600590910201805460018201546002830154600384015460049094015492955090935060ff16919085565b611dcd6138e2565b6000828152600d60205260409020600b015460ff16611dfe5760405162461bcd60e51b8152600401610a16906140d4565b6000828152600d60209081526040918290208251610180810184528154815260018201546001600160a01b0316928101929092526002810180549293919291840191611e4990614129565b80601f0160208091040260200160405190810160405280929190818152602001828054611e7590614129565b8015611ec25780601f10611e9757610100808354040283529160200191611ec2565b820191906000526020600020905b815481529060010190602001808311611ea557829003601f168201915b50505050508152602001600382018054611edb90614129565b80601f0160208091040260200160405190810160405280929190818152602001828054611f0790614129565b8015611f545780601f10611f2957610100808354040283529160200191611f54565b820191906000526020600020905b815481529060010190602001808311611f3757829003601f168201915b50505050508152602001600482015481526020016005820154815260200160068201548152602001600782018054611f8b90614129565b80601f0160208091040260200160405190810160405280929190818152602001828054611fb790614129565b80156120045780601f10611fd957610100808354040283529160200191612004565b820191906000526020600020905b815481529060010190602001808311611fe757829003601f168201915b5050509183525050600882015460209091019060ff16600381111561202b5761202b613acd565b600381111561203c5761203c613acd565b815260098201546020820152600a8201546040820152600b9091015460ff16151560609091015292915050565b6001600160a01b03918216600090815260056020908152604080832093909416825291909152205460ff1690565b6000818152601160209081526040918290208054835181840281018401909452808452606093928301828280156110ad57602002820191906000526020600020908154815260200190600101908083116110995750505050509050919050565b6000828152600d60205260409020600b0154829060ff1661212a5760405162461bcd60e51b8152600401610a16906140d4565b6000838152600d602052604090206001015483906001600160a01b031633146121655760405162461bcd60e51b8152600401610a1690614101565b6000818152600d60205260409020600b015460ff166121965760405162461bcd60e51b8152600401610a16906140d4565b6000848152600d602052604090206006015484904211156121ec5760405162461bcd60e51b815260206004820152601060248201526f11dbd85b081a185cc8195e1c1a5c995960821b6044820152606401610a16565b6121f461292a565b6121fc61294e565b66038d7ea4c68000341015801561221b5750678ac7230489e800003411155b6122605760405162461bcd60e51b8152602060048201526016602482015275125b9d985b1a590819195c1bdcda5d08185b5bdd5b9d60521b6044820152606401610a16565b6000858152600d602052604081206008015460ff16600381111561228657612286613acd565b146122a35760405162461bcd60e51b8152600401610a1690614163565b60c8845111156122c55760405162461bcd60e51b8152600401610a169061418c565b6000858152600d6020526040902060048101546005909101546122e990349061421c565b11156123425760405162461bcd60e51b815260206004820152602260248201527f4465706f73697420776f756c64206578636565642074617267657420616d6f756044820152611b9d60f21b6064820152608401610a16565b6000858152600d60205260408120600501805434929061236390849061421c565b9091555050336000908152601260205260408120805434929061238790849061421c565b925050819055506001600b60008282546123a1919061421c565b9091555050600b546040805160e081018252828152602080820189815233838501908152346060850190815260006080860181815260a087018d90524260c0880152888252600e9095529590952084518155915160018084019190915590516002830180546001600160a01b0319166001600160a01b03909216919091179055935160038201559051600482018054939492939192909160ff191690838181111561244e5761244e613acd565b021790555060a082015160058201906124679082614275565b5060c091909101516006909101556000868152601160209081526040808320805460018101825590845282842001849055888352600d8252918290206005015482513481529182015242818301529051339188917f43e534af76c719a70aba9c6aea2c26b61620e8cfcf4832e47c4f273625eb60759181900360600190a36124ee8661306b565b506124f96001600855565b5050505050565b612508612b85565b6001600160a01b03811661253257604051631e4fbdf760e01b815260006004820152602401610a16565b61253b81612c04565b50565b61254661292a565b61254e61294e565b6000855111801561256157506064855111155b6125a35760405162461bcd60e51b8152602060048201526013602482015272092dcecc2d8d2c840dcc2daca40d8cadccee8d606b1b6044820152606401610a16565b6101f4845111156125c65760405162461bcd60e51b8152600401610a169061418c565b600081511180156125d957506032815111155b6126185760405162461bcd60e51b815260206004820152601060248201526f496e76616c69642063617465676f727960801b6044820152606401610a16565b66038d7ea4c680008310158015612638575068056bc75e2d631000008311155b61267c5760405162461bcd60e51b8152602060048201526015602482015274125b9d985b1a59081d185c99d95d08185b5bdd5b9d605a1b6044820152606401610a16565b4282116126cb5760405162461bcd60e51b815260206004820152601e60248201527f446561646c696e65206d75737420626520696e207468652066757475726500006044820152606401610a16565b3360009081526010602052604090205460141161271b5760405162461bcd60e51b815260206004820152600e60248201526d546f6f206d616e7920676f616c7360901b6044820152606401610a16565b6001600a600082825461272e919061421c565b9091555050600a5460408051610180810182528281523360208083019182528284018a8152606084018a905260808401899052600060a0850181905260c0850189905260e08501889052610100850181905242610120860152610140850181905260016101608601819052878252600d9093529490942083518155915190820180546001600160a01b0319166001600160a01b03909216919091179055915190919060028201906127df9082614275565b50606082015160038201906127f49082614275565b506080820151600482015560a0820151600582015560c0820151600682015560e082015160078201906128279082614275565b5061010082015160088201805460ff1916600183600381111561284c5761284c613acd565b02179055506101208201516009820155610140820151600a82015561016090910151600b909101805460ff1916911515919091179055336000908152601060209081526040822080546001810182559083529120018190556128ae81856133ae565b336001600160a01b0316817f51d9bbc12ccb2b2198ed9d3868bbd8568f287a5d47380efed27bf86acfb7b5738888888888426040516128f2969594939291906143be565b60405180910390a3506124f96001600855565b60006001600160e01b03198216632483248360e11b14806109dd57506109dd82613481565b60095460ff161561154f5760405163d93c066560e01b815260040160405180910390fd5b60026008540361297157604051633ee5aeb560e01b815260040160405180910390fd5b6002600855565b6001600160a01b0382166000908152601060205260408120905b8154811015610ec157828282815481106129ae576129ae614335565b906000526020600020015403612a3457815482906129ce90600190614209565b815481106129de576129de614335565b90600052602060002001548282815481106129fb576129fb614335565b906000526020600020018190555081805480612a1957612a19614417565b60019003818190600052602060002001600090559055610ec1565b80612a3e8161434b565b915050612992565b6000818152600260205260408120546001600160a01b0316806109dd57604051637e27328960e01b815260048101849052602401610a16565b610be783838360016134d1565b6000828152600260205260408120546001600160a01b0390811690831615612ab957612ab98184866135d7565b6001600160a01b03811615612af757612ad66000856000806134d1565b6001600160a01b038116600090815260036020526040902080546000190190555b6001600160a01b03851615612b26576001600160a01b0385166000908152600360205260409020805460010190555b60008481526002602052604080822080546001600160a01b0319166001600160a01b0389811691821790925591518793918516917fddf252ad1be2c89b69c2b068fc378daa952ba7f163c4a11628f55a4df523b3ef91a4949350505050565b6007546001600160a01b0316331461154f5760405163118cdaa760e01b8152336004820152602401610a16565b612bba61363b565b6009805460ff191690557f5db9ee0a495bf2e6ff9c91a7834c1ba4fdd244a5e8aa4e537bd38aeae4b073aa335b6040516001600160a01b03909116815260200160405180910390a1565b600780546001600160a01b038381166001600160a01b0319831681179093556040519116919082907f8be0079c531659141344cd1fd0a4f28419497f9722a3daafe3b4186f6b6457e090600090a35050565b612c5e61292a565b6009805460ff191660011790557f62e78cea01bee320cd4e420270b5ea74000d11b0c9f74754ebdbfc544b05a258612be73390565b610cb282826040518060200160405280600081525061365e565b60606000612cba83613676565b600101905060008167ffffffffffffffff811115612cda57612cda613bb1565b6040519080825280601f01601f191660200182016040528015612d04576020820181803683370190505b5090508181016020015b600019016f181899199a1a9b1b9c1cb0b131b232b360811b600a86061a8153600a8504945084612d0e57509392505050565b6000828152600660205260409020612d588282614275565b506040518281527ff8e1a15aba9398e019f0b49df1a4fde98ee17ae345cb5f6b5e2c27f5033e8ce79060200160405180910390a15050565b6001600160a01b038216612dc257604051630b61174360e31b81526001600160a01b0383166004820152602401610a16565b6001600160a01b03838116600081815260056020908152604080832094871680845294825291829020805460ff191686151590811790915591519182527f17307eab39ab6107e8899845ad3d59bd9653f200f220920489ca2b5937696c3191015b60405180910390a3505050565b6001600160a01b0383163b156124f957604051630a85bd0160e11b81526001600160a01b0384169063150b7a0290612e7290889088908790879060040161442d565b6020604051808303816000875af1925050508015612ead575060408051601f3d908101601f19168201909252612eaa9181019061446a565b60015b612f16573d808015612edb576040519150601f19603f3d011682016040523d82523d6000602084013e612ee0565b606091505b508051600003612f0e57604051633250574960e11b81526001600160a01b0385166004820152602401610a16565b805160208201fd5b6001600160e01b03198116630a85bd0160e11b14612f5257604051633250574960e11b81526001600160a01b0385166004820152602401610a16565b505050505050565b6060612f6582612a46565b5060008281526006602052604081208054612f7f90614129565b80601f0160208091040260200160405190810160405280929190818152602001828054612fab90614129565b8015612ff85780601f10612fcd57610100808354040283529160200191612ff8565b820191906000526020600020905b815481529060010190602001808311612fdb57829003601f168201915b50505050509050600061301660408051602081019091526000815290565b90508051600003613028575092915050565b81511561305a578082604051602001613042929190614487565b60405160208183030381529060405292505050919050565b6130638461374e565b949350505050565b6000818152600f60209081526040808320600d90925282206005015490915b82548110156132bf578281815481106130a5576130a5614335565b600091825260209091206002600590920201015460ff161580156130ec57508281815481106130d6576130d6614335565b9060005260206000209060050201600101548210155b156132ad57600183828154811061310557613105614335565b906000526020600020906005020160020160006101000a81548160ff0219169083151502179055504283828154811061314057613140614335565b9060005260206000209060050201600301819055506001600c6000828254613168919061421c565b9091555050600c546000858152600d6020526040902060010154613195906001600160a01b031682612c93565b60006131a086612cad565b6131b36131ae85600161421c565b612cad565b6040516020016131c49291906144b6565b60405160208183030381529060405290506131df8282612d40565b818584815481106131f2576131f2614335565b906000526020600020906005020160040181905550600d600087815260200190815260200160002060010160009054906101000a90046001600160a01b03166001600160a01b0316867fdad00f34a95c99753b233cebe58e2fba777534a13e2d5123032fd53b026e923c87868154811061326e5761326e614335565b90600052602060002090600502016001015485426040516132a2939291909283526020830191909152604082015260600190565b60405180910390a350505b806132b78161434b565b91505061308a565b506000838152600d6020526040902060040154811080159061330457506000838152600d602052604081206008015460ff16600381111561330257613302613acd565b145b15610be7576000838152600d6020908152604080832060088101805460ff1916600190811790915542600a83015501546001600160a01b03168352601490915281208054916133528361434b565b90915550506000838152600d602090815260409182902060010154825184815242928101929092526001600160a01b03169185917f219f5b135fff700bf27e2b29370d0b7783d0d0f416d42a1142ae2a42f099e87c9101612e23565b60006133bb6004836141e7565b905060005b6004811015610ec157600f60008581526020019081526020016000206040518060a001604052808681526020018360016133fa919061421c565b61340490866141d0565b8152600060208083018290526040808401839052606093840183905285546001808201885596845292829020855160059094020192835590840151948201949094559282015160028401805460ff1916911515919091179055810151600383015560800151600490910155806134798161434b565b9150506133c0565b60006001600160e01b031982166380ac58cd60e01b14806134b257506001600160e01b03198216635b5e139f60e01b145b806109dd57506301ffc9a760e01b6001600160e01b03198316146109dd565b80806134e557506001600160a01b03821615155b156135a75760006134f584612a46565b90506001600160a01b038316158015906135215750826001600160a01b0316816001600160a01b031614155b801561353457506135328184612069565b155b1561355d5760405163a9fbf51f60e01b81526001600160a01b0384166004820152602401610a16565b81156135a55783856001600160a01b0316826001600160a01b03167f8c5be1e5ebec7d5bd14f71427d1e84f3dd0314c0f7b2291e5b200ac8c7c3b92560405160405180910390a45b505b5050600090815260046020526040902080546001600160a01b0319166001600160a01b0392909216919091179055565b6135e28383836137c3565b610be7576001600160a01b03831661361057604051637e27328960e01b815260048101829052602401610a16565b60405163177e802f60e01b81526001600160a01b038316600482015260248101829052604401610a16565b60095460ff1661154f57604051638dfc202b60e01b815260040160405180910390fd5b6136688383613826565b610be7336000858585612e30565b60008072184f03e93ff9f4daa797ed6e38ed64bf6a1f0160401b83106136b55772184f03e93ff9f4daa797ed6e38ed64bf6a1f0160401b830492506040015b6d04ee2d6d415b85acef810000000083106136e1576d04ee2d6d415b85acef8100000000830492506020015b662386f26fc1000083106136ff57662386f26fc10000830492506010015b6305f5e1008310613717576305f5e100830492506008015b612710831061372b57612710830492506004015b6064831061373d576064830492506002015b600a83106109dd5760010192915050565b606061375982612a46565b50600061377160408051602081019091526000815290565b9050600081511161379157604051806020016040528060008152506137bc565b8061379b84612cad565b6040516020016137ac929190614487565b6040516020818303038152906040525b9392505050565b60006001600160a01b038316158015906130635750826001600160a01b0316846001600160a01b031614806137fd57506137fd8484612069565b806130635750506000908152600460205260409020546001600160a01b03908116911614919050565b6001600160a01b03821661385057604051633250574960e11b815260006004820152602401610a16565b600061385e83836000612a8c565b90506001600160a01b03811615610be7576040516339e3563760e11b815260006004820152602401610a16565b6040518060e00160405280600081526020016000815260200160006001600160a01b0316815260200160008152602001600060018111156138ce576138ce613acd565b815260200160608152602001600081525090565b6040518061018001604052806000815260200160006001600160a01b031681526020016060815260200160608152602001600081526020016000815260200160008152602001606081526020016000600381111561394257613942613acd565b815260200160008152602001600081526020016000151581525090565b6001600160e01b03198116811461253b57600080fd5b60006020828403121561398757600080fd5b81356137bc8161395f565b6000602082840312156139a457600080fd5b5035919050565b60005b838110156139c65781810151838201526020016139ae565b50506000910152565b600081518084526139e78160208601602086016139ab565b601f01601f19169290920160200192915050565b6020815260006137bc60208301846139cf565b80356001600160a01b0381168114613a2557600080fd5b919050565b60008060408385031215613a3d57600080fd5b613a4683613a0e565b946020939093013593505050565b600060208284031215613a6657600080fd5b6137bc82613a0e565b60008060408385031215613a8257600080fd5b50508035926020909101359150565b600080600060608486031215613aa657600080fd5b613aaf84613a0e565b9250613abd60208501613a0e565b9150604084013590509250925092565b634e487b7160e01b600052602160045260246000fd5b60028110613af357613af3613acd565b9052565b60208152815160208201526020820151604082015260018060a01b0360408301511660608201526060820151608082015260006080830151613b3c60a0840182613ae3565b5060a083015160e060c0840152613b576101008401826139cf565b905060c084015160e08401528091505092915050565b6020808252825182820181905260009190848201906040850190845b81811015613ba557835183529284019291840191600101613b89565b50909695505050505050565b634e487b7160e01b600052604160045260246000fd5b600067ffffffffffffffff80841115613be257613be2613bb1565b604051601f8501601f19908116603f01168101908282118183101715613c0a57613c0a613bb1565b81604052809350858152868686011115613c2357600080fd5b858560208301376000602087830101525050509392505050565b600082601f830112613c4e57600080fd5b6137bc83833560208501613bc7565b600080600060608486031215613c7257600080fd5b8335925060208401359150604084013567ffffffffffffffff811115613c9757600080fd5b613ca386828701613c3d565b9150509250925092565b60048110613af357613af3613acd565b8c81526001600160a01b038c16602082015261018060408201819052600090613ce88382018e6139cf565b90508281036060840152613cfc818d6139cf565b90508a60808401528960a08401528860c084015282810360e0840152613d2281896139cf565b915050613d33610100830187613cad565b84610120830152836101408301528215156101608301529d9c50505050505050505050505050565b878152602081018790526001600160a01b038616604082015260608101859052613d886080820185613ae3565b60e060a08201526000613d9e60e08301856139cf565b90508260c083015298975050505050505050565b60008060408385031215613dc557600080fd5b613dce83613a0e565b915060208301358015158114613de357600080fd5b809150509250929050565b60008060008060808587031215613e0457600080fd5b613e0d85613a0e565b9350613e1b60208601613a0e565b925060408501359150606085013567ffffffffffffffff811115613e3e57600080fd5b8501601f81018713613e4f57600080fd5b613e5e87823560208401613bc7565b91505092959194509250565b602080825282518282018190526000919060409081850190868401855b82811015613ecd57815180518552868101518786015285810151151586860152606080820151908601526080908101519085015260a09093019290850190600101613e87565b5091979650505050505050565b602081528151602082015260006020830151613f0160408401826001600160a01b03169052565b506040830151610180806060850152613f1e6101a08501836139cf565b91506060850151601f1980868503016080870152613f3c84836139cf565b9350608087015160a087015260a087015160c087015260c087015160e087015260e08701519150610100818786030181880152613f7985846139cf565b94508088015192505050610120613f9281870183613cad565b860151610140868101919091528601516101608087019190915290950151151593019290925250919050565b60008060408385031215613fd157600080fd5b613fda83613a0e565b9150613fe860208401613a0e565b90509250929050565b6000806040838503121561400457600080fd5b82359150602083013567ffffffffffffffff81111561402257600080fd5b61402e85828601613c3d565b9150509250929050565b600080600080600060a0868803121561405057600080fd5b853567ffffffffffffffff8082111561406857600080fd5b61407489838a01613c3d565b9650602088013591508082111561408a57600080fd5b61409689838a01613c3d565b9550604088013594506060880135935060808801359150808211156140ba57600080fd5b506140c788828901613c3d565b9150509295509295909350565b60208082526013908201527211dbd85b08191bd95cc81b9bdd08195e1a5cdd606a1b604082015260600190565b6020808252600e908201526d2737ba1033b7b0b61037bbb732b960911b604082015260600190565b600181811c9082168061413d57607f821691505b60208210810361415d57634e487b7160e01b600052602260045260246000fd5b50919050565b6020808252600f908201526e476f616c206e6f742061637469766560881b604082015260600190565b6020808252601490820152734465736372697074696f6e20746f6f206c6f6e6760601b604082015260600190565b634e487b7160e01b600052601160045260246000fd5b80820281158282048414176109dd576109dd6141ba565b60008261420457634e487b7160e01b600052601260045260246000fd5b500490565b818103818111156109dd576109dd6141ba565b808201808211156109dd576109dd6141ba565b601f821115610be757600081815260208120601f850160051c810160208610156142565750805b601f850160051c820191505b81811015612f5257828155600101614262565b815167ffffffffffffffff81111561428f5761428f613bb1565b6142a38161429d8454614129565b8461422f565b602080601f8311600181146142d857600084156142c05750858301515b600019600386901b1c1916600185901b178555612f52565b600085815260208120601f198616915b82811015614307578886015182559484019460019091019084016142e8565b50858210156143255787850151600019600388901b60f8161c191681555b5050505050600190811b01905550565b634e487b7160e01b600052603260045260246000fd5b60006001820161435d5761435d6141ba565b5060010190565b7f68747470733a2f2f7765736176652e6170702f6170692f6e66742f000000000081526000825161439c81601b8501602087016139ab565b6a17b1b7b6b83632ba34b7b760a91b601b939091019283015250602601919050565b60c0815260006143d160c08301896139cf565b82810360208401526143e381896139cf565b9050866040840152856060840152828103608084015261440381866139cf565b9150508260a0830152979650505050505050565b634e487b7160e01b600052603160045260246000fd5b6001600160a01b0385811682528416602082015260408101839052608060608201819052600090614460908301846139cf565b9695505050505050565b60006020828403121561447c57600080fd5b81516137bc8161395f565b600083516144998184602088016139ab565b8351908301906144ad8183602088016139ab565b01949350505050565b7f68747470733a2f2f7765736176652e6170702f6170692f6e66742f00000000008152600083516144ee81601b8501602088016139ab565b6a2f6d696c6573746f6e652f60a81b601b9184019182015283516145198160268401602088016139ab565b0160260194935050505056fea2646970667358221220cbaeff679ee6381fb8cd12cd791a2a834360178d80cca0ef9c61b83ae43f1e4864736f6c63430008140033",
  "linkReferences": {},
  "deployedLinkReferences": {}
}